{
  "address": "0x7E1dE17d56197da246Be43158542B98aAe516aE9",
  "abi": [
    {
      "inputs": [
        {
          "internalType": "address",
          "name": "owner",
          "type": "address"
        }
      ],
      "stateMutability": "nonpayable",
      "type": "constructor"
    },
    {
      "anonymous": false,
      "inputs": [
        {
          "indexed": false,
          "internalType": "uint256",
          "name": "id",
          "type": "uint256"
        },
        {
          "indexed": false,
          "internalType": "string",
          "name": "carrier",
          "type": "string"
        },
        {
          "indexed": false,
          "internalType": "uint256",
          "name": "transitStartTime",
          "type": "uint256"
        }
      ],
      "name": "DonationInTransit",
      "type": "event"
    },
    {
      "anonymous": false,
      "inputs": [
        {
          "indexed": false,
          "internalType": "uint256",
          "name": "id",
          "type": "uint256"
        },
        {
          "indexed": false,
          "internalType": "string",
          "name": "donor",
          "type": "string"
        }
      ],
      "name": "DonationReceived",
      "type": "event"
    },
    {
      "anonymous": false,
      "inputs": [
        {
          "indexed": false,
          "internalType": "uint256",
          "name": "id",
          "type": "uint256"
        }
      ],
      "name": "RequestDelivered",
      "type": "event"
    },
    {
      "anonymous": false,
      "inputs": [
        {
          "indexed": false,
          "internalType": "uint256",
          "name": "id",
          "type": "uint256"
        },
        {
          "indexed": false,
          "internalType": "string",
          "name": "beneficiary",
          "type": "string"
        },
        {
          "indexed": false,
          "internalType": "string",
          "name": "description",
          "type": "string"
        },
        {
          "indexed": false,
          "internalType": "bool",
          "name": "requiresTransport",
          "type": "bool"
        }
      ],
      "name": "RequestRegistered",
      "type": "event"
    },
    {
      "anonymous": false,
      "inputs": [
        {
          "indexed": false,
          "internalType": "uint256",
          "name": "id",
          "type": "uint256"
        }
      ],
      "name": "RequestVerified",
      "type": "event"
    },
    {
      "inputs": [],
      "name": "admin",
      "outputs": [
        {
          "internalType": "address",
          "name": "",
          "type": "address"
        }
      ],
      "stateMutability": "view",
      "type": "function"
    },
    {
      "inputs": [
        {
          "internalType": "uint256",
          "name": "_id",
          "type": "uint256"
        }
      ],
      "name": "confirmDelivery",
      "outputs": [],
      "stateMutability": "nonpayable",
      "type": "function"
    },
    {
      "inputs": [
        {
          "internalType": "uint256",
          "name": "_id",
          "type": "uint256"
        },
        {
          "internalType": "string",
          "name": "_donor",
          "type": "string"
        }
      ],
      "name": "donate",
      "outputs": [],
      "stateMutability": "nonpayable",
      "type": "function"
    },
    {
      "inputs": [
        {
          "internalType": "uint256",
          "name": "_id",
          "type": "uint256"
        }
      ],
      "name": "getDonationStatus",
      "outputs": [
        {
          "internalType": "string",
          "name": "",
          "type": "string"
        }
      ],
      "stateMutability": "view",
      "type": "function"
    },
    {
      "inputs": [
        {
          "internalType": "uint256",
          "name": "_id",
          "type": "uint256"
        }
      ],
      "name": "getRequest",
      "outputs": [
        {
          "internalType": "string",
          "name": "",
          "type": "string"
        }
      ],
      "stateMutability": "view",
      "type": "function"
    },
    {
      "inputs": [],
      "name": "getRequestCount",
      "outputs": [
        {
          "internalType": "uint256",
          "name": "",
          "type": "uint256"
        }
      ],
      "stateMutability": "view",
      "type": "function"
    },
    {
      "inputs": [
        {
          "internalType": "string",
          "name": "_beneficiary",
          "type": "string"
        },
        {
          "internalType": "string",
          "name": "_description",
          "type": "string"
        },
        {
          "internalType": "bool",
          "name": "_requiresTransport",
          "type": "bool"
        }
      ],
      "name": "registerRequest",
      "outputs": [],
      "stateMutability": "nonpayable",
      "type": "function"
    },
    {
      "inputs": [
        {
          "internalType": "uint256",
          "name": "",
          "type": "uint256"
        }
      ],
      "name": "requestToIndex",
      "outputs": [
        {
          "internalType": "uint256",
          "name": "",
          "type": "uint256"
        }
      ],
      "stateMutability": "view",
      "type": "function"
    },
    {
      "inputs": [
        {
          "internalType": "uint256",
          "name": "",
          "type": "uint256"
        }
      ],
      "name": "requests",
      "outputs": [
        {
          "internalType": "uint256",
          "name": "id",
          "type": "uint256"
        },
        {
          "internalType": "string",
          "name": "beneficiary",
          "type": "string"
        },
        {
          "internalType": "string",
          "name": "description",
          "type": "string"
        },
        {
          "internalType": "enum DonationPlatform.Status",
          "name": "status",
          "type": "uint8"
        },
        {
          "internalType": "bool",
          "name": "requiresTransport",
          "type": "bool"
        },
        {
          "internalType": "string",
          "name": "donor",
          "type": "string"
        },
        {
          "internalType": "bool",
          "name": "delivered",
          "type": "bool"
        },
        {
          "internalType": "string",
          "name": "carrier",
          "type": "string"
        },
        {
          "internalType": "uint256",
          "name": "transitStartTime",
          "type": "uint256"
        }
      ],
      "stateMutability": "view",
      "type": "function"
    },
    {
      "inputs": [
        {
          "internalType": "uint256",
          "name": "_id",
          "type": "uint256"
        },
        {
          "internalType": "string",
          "name": "_carrier",
          "type": "string"
        }
      ],
      "name": "startTransport",
      "outputs": [],
      "stateMutability": "nonpayable",
      "type": "function"
    },
    {
      "inputs": [
        {
          "internalType": "uint256",
          "name": "_id",
          "type": "uint256"
        }
      ],
      "name": "verifyRequest",
      "outputs": [],
      "stateMutability": "nonpayable",
      "type": "function"
    }
  ],
  "transactionHash": "0x7de7b52227a4e0511195c11a1b2993c8a427f8ab83adce6d3299773fb978cfc7",
  "args": [
    "0x372D0E7f24EA2586F9F651b3a0975dC45F9cCb5d"
  ],
  "numDeployments": 1,
  "solcInputHash": "bb7acc684260815f527517c3eadaab2c",
  "bytecode": "0x608060405234801561001057600080fd5b50604051611b3b380380611b3b83398101604081905261002f91610054565b600280546001600160a01b0319166001600160a01b0392909216919091179055610084565b60006020828403121561006657600080fd5b81516001600160a01b038116811461007d57600080fd5b9392505050565b611aa8806100936000396000f3fe608060405234801561001057600080fd5b50600436106100a95760003560e01c80638d59d1f1116100715780638d59d1f114610139578063a030a1891461014c578063c58343ef1461015f578063c6629f3f1461017f578063f851a44014610192578063fd84cb97146101bd57600080fd5b80630e4ddfee146100ae5780630e964675146100c35780633fad1834146100f65780637ae6da9b146100fe57806381d12c5814610111575b600080fd5b6100c16100bc36600461149d565b6101d0565b005b6100e36100d136600461151a565b60016020526000908152604090205481565b6040519081526020015b60405180910390f35b6000546100e3565b6100c161010c36600461151a565b6103c9565b61012461011f36600461151a565b610506565b6040516100ed99989796959493929190611599565b6100c1610147366004611641565b610792565b6100c161015a366004611641565b610985565b61017261016d36600461151a565b610b38565b6040516100ed9190611688565b61017261018d36600461151a565b610f36565b6002546101a5906001600160a01b031681565b6040516001600160a01b0390911681526020016100ed565b6100c16101cb36600461151a565b61110f565b6002546001600160a01b031633146102035760405162461bcd60e51b81526004016101fa906116a2565b60405180910390fd5b60408051610120810182526000805480835260208084018881528486018890526060850184905286151560808601528551808301875284815260a086015260c08501849052855191820190955282815260e08401526101008301829052600181018255908052815160089091027f290decd9548b62a8d60345a988386fc84ba6bc95484008f6362f93160ef3e56381019182559251919290917f290decd9548b62a8d60345a988386fc84ba6bc95484008f6362f93160ef3e564909101906102cb9082611767565b50604082015160028201906102e09082611767565b50606082015160038201805460ff1916600183600581111561030457610304611583565b021790555060808201516003820180549115156101000261ff001990921691909117905560a0820151600482019061033c9082611767565b5060c082015160058201805460ff191691151591909117905560e082015160068201906103699082611767565b5061010091909101516007909101556000547f5bb5f4fec9275b736913b8cc479592168238029430ed40b72700e118c29945f9906103a99060019061183d565b8484846040516103bc9493929190611856565b60405180910390a1505050565b6002546001600160a01b031633146103f35760405162461bcd60e51b81526004016101fa906116a2565b600080828154811061040757610407611895565b600091825260209091206003600890920201015460ff16600581111561042f5761042f611583565b146104885760405162461bcd60e51b8152602060048201526024808201527f52657175657374206d7573742062652070656e64696e672076657269666963616044820152633a34b7b760e11b60648201526084016101fa565b60016000828154811061049d5761049d611895565b60009182526020909120600360089092020101805460ff191660018360058111156104ca576104ca611583565b02179055506040518181527fc9f4fe6c876475539f053c251159281f5719550634f5afb4cfa261038989c010906020015b60405180910390a150565b6000818154811061051657600080fd5b6000918252602090912060089091020180546001820180549193509061053b906116e4565b80601f0160208091040260200160405190810160405280929190818152602001828054610567906116e4565b80156105b45780601f10610589576101008083540402835291602001916105b4565b820191906000526020600020905b81548152906001019060200180831161059757829003601f168201915b5050505050908060020180546105c9906116e4565b80601f01602080910402602001604051908101604052809291908181526020018280546105f5906116e4565b80156106425780601f1061061757610100808354040283529160200191610642565b820191906000526020600020905b81548152906001019060200180831161062557829003601f168201915b505050506003830154600484018054939460ff808416956101009094041693509161066c906116e4565b80601f0160208091040260200160405190810160405280929190818152602001828054610698906116e4565b80156106e55780601f106106ba576101008083540402835291602001916106e5565b820191906000526020600020905b8154815290600101906020018083116106c857829003601f168201915b5050506005840154600685018054949560ff909216949193509150610709906116e4565b80601f0160208091040260200160405190810160405280929190818152602001828054610735906116e4565b80156107825780601f1061075757610100808354040283529160200191610782565b820191906000526020600020905b81548152906001019060200180831161076557829003601f168201915b5050505050908060070154905089565b6002546001600160a01b031633146107bc5760405162461bcd60e51b81526004016101fa906116a2565b6001600083815481106107d1576107d1611895565b600091825260209091206003600890920201015460ff1660058111156107f9576107f9611583565b146108515760405162461bcd60e51b815260206004820152602260248201527f52657175657374206d75737420626520766572696669656420746f20646f6e61604482015261746560f01b60648201526084016101fa565b806000838154811061086557610865611895565b906000526020600020906008020160040190816108829190611767565b5060026000838154811061089857610898611895565b60009182526020909120600360089092020101805460ff191660018360058111156108c5576108c5611583565b02179055507f86116f1c6d6c56e3ff082897362ccd289f86a07ef3883f52865d152626303e4e82826040516108fb9291906118ab565b60405180910390a16000828154811061091657610916611895565b906000526020600020906008020160030160019054906101000a900460ff166109815760036000838154811061094e5761094e611895565b60009182526020909120600360089092020101805460ff1916600183600581111561097b5761097b611583565b02179055505b5050565b6002546001600160a01b031633146109af5760405162461bcd60e51b81526004016101fa906116a2565b6002600083815481106109c4576109c4611895565b600091825260209091206003600890920201015460ff1660058111156109ec576109ec611583565b14610a575760405162461bcd60e51b815260206004820152603560248201527f446f6e6174696f6e206d75737420626520696e20446f6e6174656420737461746044820152741d5cc81d1bc81cdd185c9d081d1c985b9cdc1bdc9d605a1b60648201526084016101fa565b8060008381548110610a6b57610a6b611895565b90600052602060002090600802016006019081610a889190611767565b504260008381548110610a9d57610a9d611895565b906000526020600020906008020160070181905550600460008381548110610ac757610ac7611895565b60009182526020909120600360089092020101805460ff19166001836005811115610af457610af4611583565b02179055507fcf3294d8de96bd014489ed026d25f08465a5d3309d9803b30562c90b600f47d1828242604051610b2c939291906118cc565b60405180910390a15050565b60606000808381548110610b4e57610b4e611895565b90600052602060002090600802016040518061012001604052908160008201548152602001600182018054610b82906116e4565b80601f0160208091040260200160405190810160405280929190818152602001828054610bae906116e4565b8015610bfb5780601f10610bd057610100808354040283529160200191610bfb565b820191906000526020600020905b815481529060010190602001808311610bde57829003601f168201915b50505050508152602001600282018054610c14906116e4565b80601f0160208091040260200160405190810160405280929190818152602001828054610c40906116e4565b8015610c8d5780601f10610c6257610100808354040283529160200191610c8d565b820191906000526020600020905b815481529060010190602001808311610c7057829003601f168201915b5050509183525050600382015460209091019060ff166005811115610cb457610cb4611583565b6005811115610cc557610cc5611583565b81526003820154610100900460ff1615156020820152600482018054604090920191610cf0906116e4565b80601f0160208091040260200160405190810160405280929190818152602001828054610d1c906116e4565b8015610d695780601f10610d3e57610100808354040283529160200191610d69565b820191906000526020600020905b815481529060010190602001808311610d4c57829003601f168201915b5050509183525050600582015460ff1615156020820152600682018054604090920191610d95906116e4565b80601f0160208091040260200160405190810160405280929190818152602001828054610dc1906116e4565b8015610e0e5780601f10610de357610100808354040283529160200191610e0e565b820191906000526020600020905b815481529060010190602001808311610df157829003601f168201915b5050505050815260200160078201548152505090506000610e3282600001516112ea565b82602001518360400151610e5a85606001516005811115610e5557610e55611583565b6112ea565b8560800151610e86576040518060400160405280600581526020016466616c736560d81b815250610ea4565b604051806040016040528060048152602001637472756560e01b8152505b8660a001518760c00151610ed5576040518060400160405280600581526020016466616c736560d81b815250610ef3565b604051806040016040528060048152602001637472756560e01b8152505b8860e00151610f068a61010001516112ea565b604051602001610f1e99989796959493929190611911565b60408051601f19818403018152919052949350505050565b60606000808381548110610f4c57610f4c611895565b6000918252602082206003600890920201015460ff169150816005811115610f7657610f76611583565b03610fa057505060408051808201909152600781526650656e64696e6760c81b6020820152919050565b6001816005811115610fb457610fb4611583565b03610fdf57505060408051808201909152600881526715995c9a599a595960c21b6020820152919050565b6002816005811115610ff357610ff3611583565b0361101d575050604080518082019091526007815266111bdb985d195960ca1b6020820152919050565b600381600581111561103157611031611583565b0361106457505060408051808201909152601081526f057616974696e67466f725069636b75760841b6020820152919050565b600481600581111561107857611078611583565b036110a4575050604080518082019091526009815268125b951c985b9cda5d60ba1b6020820152919050565b60058160058111156110b8576110b8611583565b036110e457505060408051808201909152600981526811195b1a5d995c995960ba1b6020820152919050565b50506040805180820190915260078152662ab735b737bbb760c91b6020820152919050565b50919050565b6002546001600160a01b031633146111395760405162461bcd60e51b81526004016101fa906116a2565b60046000828154811061114e5761114e611895565b600091825260209091206003600890920201015460ff16600581111561117657611176611583565b14806111bc575060036000828154811061119257611192611895565b600091825260209091206003600890920201015460ff1660058111156111ba576111ba611583565b145b61123c5760405162461bcd60e51b815260206004820152604560248201527f446f6e6174696f6e206d75737420626520696e207472616e736974206f72207760448201527f616974696e6720666f72207069636b757020746f20636f6e6669726d2064656c606482015264697665727960d81b608482015260a4016101fa565b60016000828154811061125157611251611895565b60009182526020822060056008909202018101805493151560ff199094169390931790925580548390811061128857611288611895565b60009182526020909120600360089092020101805460ff191660018360058111156112b5576112b5611583565b02179055506040518181527fb4b3b314927e73457c25b9495997950f4abbfefc0f6f9ad914c84c50d36a43f4906020016104fb565b6060816000036113115750506040805180820190915260018152600360fc1b602082015290565b8160005b811561133b578061132581611a08565b91506113349050600a83611a37565b9150611315565b60008167ffffffffffffffff811115611356576113566113fa565b6040519080825280601f01601f191660200182016040528015611380576020820181803683370190505b509050815b85156113f15761139660018261183d565b905060006113a5600a88611a4b565b90506113b2600a88611a37565b96506113bf816030611a5f565b60f81b8383815181106113d4576113d4611895565b60200101906001600160f81b031916908160001a90535050611385565b50949350505050565b634e487b7160e01b600052604160045260246000fd5b600082601f83011261142157600080fd5b813567ffffffffffffffff8082111561143c5761143c6113fa565b604051601f8301601f19908116603f01168101908282118183101715611464576114646113fa565b8160405283815286602085880101111561147d57600080fd5b836020870160208301376000602085830101528094505050505092915050565b6000806000606084860312156114b257600080fd5b833567ffffffffffffffff808211156114ca57600080fd5b6114d687838801611410565b945060208601359150808211156114ec57600080fd5b506114f986828701611410565b9250506040840135801515811461150f57600080fd5b809150509250925092565b60006020828403121561152c57600080fd5b5035919050565b60005b8381101561154e578181015183820152602001611536565b50506000910152565b6000815180845261156f816020860160208601611533565b601f01601f19169290920160200192915050565b634e487b7160e01b600052602160045260246000fd5b60006101208b83528060208401526115b38184018c611557565b905082810360408401526115c7818b611557565b9050600689106115e757634e487b7160e01b600052602160045260246000fd5b8860608401526115fb608084018915159052565b82810360a084015261160d8188611557565b86151560c0850152905082810360e08401526116298186611557565b915050826101008301529a9950505050505050505050565b6000806040838503121561165457600080fd5b82359150602083013567ffffffffffffffff81111561167257600080fd5b61167e85828601611410565b9150509250929050565b60208152600061169b6020830184611557565b9392505050565b60208082526022908201527f4f6e6c792061646d696e2063616e20706572666f726d2074686973206163746960408201526137b760f11b606082015260800190565b600181811c908216806116f857607f821691505b60208210810361110957634e487b7160e01b600052602260045260246000fd5b601f82111561176257600081815260208120601f850160051c8101602086101561173f5750805b601f850160051c820191505b8181101561175e5782815560010161174b565b5050505b505050565b815167ffffffffffffffff811115611781576117816113fa565b6117958161178f84546116e4565b84611718565b602080601f8311600181146117ca57600084156117b25750858301515b600019600386901b1c1916600185901b17855561175e565b600085815260208120601f198616915b828110156117f9578886015182559484019460019091019084016117da565b50858210156118175787850151600019600388901b60f8161c191681555b5050505050600190811b01905550565b634e487b7160e01b600052601160045260246000fd5b8181038181111561185057611850611827565b92915050565b84815260806020820152600061186f6080830186611557565b82810360408401526118818186611557565b915050821515606083015295945050505050565b634e487b7160e01b600052603260045260246000fd5b8281526040602082015260006118c46040830184611557565b949350505050565b8381526060602082015260006118e56060830185611557565b9050826040830152949350505050565b60008151611907818560208601611533565b9290920192915050565b60008a51611923818460208f01611533565b600b60fa1b9083019081528a51611941816001840160208f01611533565b600b60fa1b600192909101918201528951611963816002840160208e01611533565b600b60fa1b600292909101918201528851611985816003840160208d01611533565b600b60fa1b6003929091019182015287516119a7816004840160208c01611533565b6119f76119f16119d86119eb6119d86119e56119d86119d26004898b0101600b60fa1b815260010190565b8f6118f5565b600b60fa1b815260010190565b8c6118f5565b896118f5565b866118f5565b9d9c50505050505050505050505050565b600060018201611a1a57611a1a611827565b5060010190565b634e487b7160e01b600052601260045260246000fd5b600082611a4657611a46611a21565b500490565b600082611a5a57611a5a611a21565b500690565b808201808211156118505761185061182756fea26469706673582212205863fe152e392e58f9925fae3fada96c5cf4b561388084c93f0967a4dd2ac21b64736f6c63430008110033",
  "devdoc": {
    "kind": "dev",
    "methods": {},
    "version": 1
  },
  "userdoc": {
    "kind": "user",
    "methods": {},
    "version": 1
  },
  "storageLayout": {
    "storage": [
      {
        "astId": 32,
        "contract": "contracts/DonationPlatform.sol:DonationPlatform",
        "label": "requests",
        "offset": 0,
        "slot": "0",
        "type": "t_array(t_struct(Request)28_storage)dyn_storage"
      },
      {
        "astId": 36,
        "contract": "contracts/DonationPlatform.sol:DonationPlatform",
        "label": "requestToIndex",
        "offset": 0,
        "slot": "1",
        "type": "t_mapping(t_uint256,t_uint256)"
      },
      {
        "astId": 70,
        "contract": "contracts/DonationPlatform.sol:DonationPlatform",
        "label": "admin",
        "offset": 0,
        "slot": "2",
        "type": "t_address"
      }
    ],
    "types": {
      "t_address": {
        "encoding": "inplace",
        "label": "address",
        "numberOfBytes": "20"
      },
      "t_array(t_struct(Request)28_storage)dyn_storage": {
        "base": "t_struct(Request)28_storage",
        "encoding": "dynamic_array",
        "label": "struct DonationPlatform.Request[]",
        "numberOfBytes": "32"
      },
      "t_bool": {
        "encoding": "inplace",
        "label": "bool",
        "numberOfBytes": "1"
      },
      "t_enum(Status)8": {
        "encoding": "inplace",
        "label": "enum DonationPlatform.Status",
        "numberOfBytes": "1"
      },
      "t_mapping(t_uint256,t_uint256)": {
        "encoding": "mapping",
        "key": "t_uint256",
        "label": "mapping(uint256 => uint256)",
        "numberOfBytes": "32",
        "value": "t_uint256"
      },
      "t_string_storage": {
        "encoding": "bytes",
        "label": "string",
        "numberOfBytes": "32"
      },
      "t_struct(Request)28_storage": {
        "encoding": "inplace",
        "label": "struct DonationPlatform.Request",
        "members": [
          {
            "astId": 10,
            "contract": "contracts/DonationPlatform.sol:DonationPlatform",
            "label": "id",
            "offset": 0,
            "slot": "0",
            "type": "t_uint256"
          },
          {
            "astId": 12,
            "contract": "contracts/DonationPlatform.sol:DonationPlatform",
            "label": "beneficiary",
            "offset": 0,
            "slot": "1",
            "type": "t_string_storage"
          },
          {
            "astId": 14,
            "contract": "contracts/DonationPlatform.sol:DonationPlatform",
            "label": "description",
            "offset": 0,
            "slot": "2",
            "type": "t_string_storage"
          },
          {
            "astId": 17,
            "contract": "contracts/DonationPlatform.sol:DonationPlatform",
            "label": "status",
            "offset": 0,
            "slot": "3",
            "type": "t_enum(Status)8"
          },
          {
            "astId": 19,
            "contract": "contracts/DonationPlatform.sol:DonationPlatform",
            "label": "requiresTransport",
            "offset": 1,
            "slot": "3",
            "type": "t_bool"
          },
          {
            "astId": 21,
            "contract": "contracts/DonationPlatform.sol:DonationPlatform",
            "label": "donor",
            "offset": 0,
            "slot": "4",
            "type": "t_string_storage"
          },
          {
            "astId": 23,
            "contract": "contracts/DonationPlatform.sol:DonationPlatform",
            "label": "delivered",
            "offset": 0,
            "slot": "5",
            "type": "t_bool"
          },
          {
            "astId": 25,
            "contract": "contracts/DonationPlatform.sol:DonationPlatform",
            "label": "carrier",
            "offset": 0,
            "slot": "6",
            "type": "t_string_storage"
          },
          {
            "astId": 27,
            "contract": "contracts/DonationPlatform.sol:DonationPlatform",
            "label": "transitStartTime",
            "offset": 0,
            "slot": "7",
            "type": "t_uint256"
          }
        ],
        "numberOfBytes": "256"
      },
      "t_uint256": {
        "encoding": "inplace",
        "label": "uint256",
        "numberOfBytes": "32"
      }
    }
  }
}